{
  "_format": "hh-sol-artifact-1",
  "contractName": "Donation",
  "sourceName": "contracts/Donation.sol",
  "abi": [
    {
      "inputs": [
        {
          "internalType": "address",
          "name": "initialOwner",
          "type": "address"
        }
      ],
      "stateMutability": "nonpayable",
      "type": "constructor"
    },
    {
      "inputs": [
        {
          "internalType": "address",
          "name": "owner",
          "type": "address"
        }
      ],
      "name": "OwnableInvalidOwner",
      "type": "error"
    },
    {
      "inputs": [
        {
          "internalType": "address",
          "name": "account",
          "type": "address"
        }
      ],
      "name": "OwnableUnauthorizedAccount",
      "type": "error"
    },
    {
      "inputs": [],
      "name": "ReentrancyGuardReentrantCall",
      "type": "error"
    },
    {
      "anonymous": false,
      "inputs": [
        {
          "indexed": true,
          "internalType": "uint256",
          "name": "campaignId",
          "type": "uint256"
        },
        {
          "indexed": true,
          "internalType": "address",
          "name": "ngo",
          "type": "address"
        },
        {
          "indexed": false,
          "internalType": "uint256",
          "name": "timestamp",
          "type": "uint256"
        }
      ],
      "name": "CampaignRegistered",
      "type": "event"
    },
    {
      "anonymous": false,
      "inputs": [
        {
          "indexed": true,
          "internalType": "uint256",
          "name": "campaignId",
          "type": "uint256"
        },
        {
          "indexed": true,
          "internalType": "address",
          "name": "donor",
          "type": "address"
        },
        {
          "indexed": false,
          "internalType": "uint256",
          "name": "amount",
          "type": "uint256"
        },
        {
          "indexed": false,
          "internalType": "uint256",
          "name": "campaignTotal",
          "type": "uint256"
        },
        {
          "indexed": false,
          "internalType": "uint256",
          "name": "timestamp",
          "type": "uint256"
        }
      ],
      "name": "DonationReceived",
      "type": "event"
    },
    {
      "anonymous": false,
      "inputs": [
        {
          "indexed": true,
          "internalType": "uint256",
          "name": "milestoneId",
          "type": "uint256"
        },
        {
          "indexed": true,
          "internalType": "uint256",
          "name": "campaignId",
          "type": "uint256"
        },
        {
          "indexed": true,
          "internalType": "address",
          "name": "ngo",
          "type": "address"
        },
        {
          "indexed": false,
          "internalType": "uint256",
          "name": "amount",
          "type": "uint256"
        },
        {
          "indexed": false,
          "internalType": "uint256",
          "name": "timestamp",
          "type": "uint256"
        }
      ],
      "name": "FundsReleased",
      "type": "event"
    },
    {
      "anonymous": false,
      "inputs": [
        {
          "indexed": true,
          "internalType": "uint256",
          "name": "milestoneId",
          "type": "uint256"
        },
        {
          "indexed": true,
          "internalType": "uint256",
          "name": "campaignId",
          "type": "uint256"
        },
        {
          "indexed": false,
          "internalType": "uint256",
          "name": "amount",
          "type": "uint256"
        },
        {
          "indexed": false,
          "internalType": "uint256",
          "name": "timestamp",
          "type": "uint256"
        }
      ],
      "name": "MilestoneRegistered",
      "type": "event"
    },
    {
      "anonymous": false,
      "inputs": [
        {
          "indexed": true,
          "internalType": "address",
          "name": "previousOwner",
          "type": "address"
        },
        {
          "indexed": true,
          "internalType": "address",
          "name": "newOwner",
          "type": "address"
        }
      ],
      "name": "OwnershipTransferred",
      "type": "event"
    },
    {
      "inputs": [
        {
          "internalType": "uint256",
          "name": "",
          "type": "uint256"
        }
      ],
      "name": "campaignFunds",
      "outputs": [
        {
          "internalType": "uint256",
          "name": "",
          "type": "uint256"
        }
      ],
      "stateMutability": "view",
      "type": "function"
    },
    {
      "inputs": [
        {
          "internalType": "uint256",
          "name": "",
          "type": "uint256"
        }
      ],
      "name": "campaignNgoWallet",
      "outputs": [
        {
          "internalType": "address payable",
          "name": "",
          "type": "address"
        }
      ],
      "stateMutability": "view",
      "type": "function"
    },
    {
      "inputs": [
        {
          "internalType": "uint256",
          "name": "campaignId",
          "type": "uint256"
        }
      ],
      "name": "donate",
      "outputs": [],
      "stateMutability": "payable",
      "type": "function"
    },
    {
      "inputs": [
        {
          "internalType": "uint256",
          "name": "",
          "type": "uint256"
        },
        {
          "internalType": "address",
          "name": "",
          "type": "address"
        }
      ],
      "name": "donorCampaignTotals",
      "outputs": [
        {
          "internalType": "uint256",
          "name": "",
          "type": "uint256"
        }
      ],
      "stateMutability": "view",
      "type": "function"
    },
    {
      "inputs": [
        {
          "internalType": "uint256",
          "name": "campaignId",
          "type": "uint256"
        }
      ],
      "name": "getCampaignFunds",
      "outputs": [
        {
          "internalType": "uint256",
          "name": "",
          "type": "uint256"
        }
      ],
      "stateMutability": "view",
      "type": "function"
    },
    {
      "inputs": [
        {
          "internalType": "uint256",
          "name": "campaignId",
          "type": "uint256"
        },
        {
          "internalType": "address",
          "name": "donor",
          "type": "address"
        }
      ],
      "name": "getDonorCampaignTotal",
      "outputs": [
        {
          "internalType": "uint256",
          "name": "",
          "type": "uint256"
        }
      ],
      "stateMutability": "view",
      "type": "function"
    },
    {
      "inputs": [
        {
          "internalType": "uint256",
          "name": "",
          "type": "uint256"
        }
      ],
      "name": "milestoneReleaseAmount",
      "outputs": [
        {
          "internalType": "uint256",
          "name": "",
          "type": "uint256"
        }
      ],
      "stateMutability": "view",
      "type": "function"
    },
    {
      "inputs": [
        {
          "internalType": "uint256",
          "name": "",
          "type": "uint256"
        }
      ],
      "name": "milestoneReleased",
      "outputs": [
        {
          "internalType": "bool",
          "name": "",
          "type": "bool"
        }
      ],
      "stateMutability": "view",
      "type": "function"
    },
    {
      "inputs": [
        {
          "internalType": "uint256",
          "name": "",
          "type": "uint256"
        }
      ],
      "name": "milestoneToCampaign",
      "outputs": [
        {
          "internalType": "uint256",
          "name": "",
          "type": "uint256"
        }
      ],
      "stateMutability": "view",
      "type": "function"
    },
    {
      "inputs": [],
      "name": "owner",
      "outputs": [
        {
          "internalType": "address",
          "name": "",
          "type": "address"
        }
      ],
      "stateMutability": "view",
      "type": "function"
    },
    {
      "inputs": [
        {
          "internalType": "address payable",
          "name": "ngo",
          "type": "address"
        }
      ],
      "name": "registerCampaign",
      "outputs": [
        {
          "internalType": "uint256",
          "name": "",
          "type": "uint256"
        }
      ],
      "stateMutability": "nonpayable",
      "type": "function"
    },
    {
      "inputs": [
        {
          "internalType": "uint256",
          "name": "campaignId",
          "type": "uint256"
        },
        {
          "internalType": "uint256",
          "name": "amountWei",
          "type": "uint256"
        }
      ],
      "name": "registerMilestone",
      "outputs": [
        {
          "internalType": "uint256",
          "name": "",
          "type": "uint256"
        }
      ],
      "stateMutability": "nonpayable",
      "type": "function"
    },
    {
      "inputs": [
        {
          "internalType": "uint256",
          "name": "milestoneId",
          "type": "uint256"
        }
      ],
      "name": "releaseFunds",
      "outputs": [],
      "stateMutability": "nonpayable",
      "type": "function"
    },
    {
      "inputs": [],
      "name": "renounceOwnership",
      "outputs": [],
      "stateMutability": "nonpayable",
      "type": "function"
    },
    {
      "inputs": [],
      "name": "totalDonated",
      "outputs": [
        {
          "internalType": "uint256",
          "name": "",
          "type": "uint256"
        }
      ],
      "stateMutability": "view",
      "type": "function"
    },
    {
      "inputs": [],
      "name": "totalReleased",
      "outputs": [
        {
          "internalType": "uint256",
          "name": "",
          "type": "uint256"
        }
      ],
      "stateMutability": "view",
      "type": "function"
    },
    {
      "inputs": [
        {
          "internalType": "address",
          "name": "newOwner",
          "type": "address"
        }
      ],
      "name": "transferOwnership",
      "outputs": [],
      "stateMutability": "nonpayable",
      "type": "function"
    }
  ],
  "bytecode": "0x608060405260016009556001600a5534801561001a57600080fd5b50604051610eba380380610eba833981016040819052610039916100ec565b806001600160a01b03811661006857604051631e4fbdf760e01b81526000600482015260240160405180910390fd5b6100718161009c565b5060017f9b779b17422d0df92223018b32b4d1fa46e071723d6817e2486d003becc55f00555061011c565b600080546001600160a01b038381166001600160a01b0319831681178455604051919092169283917f8be0079c531659141344cd1fd0a4f28419497f9722a3daafe3b4186f6b6457e09190a35050565b6000602082840312156100fe57600080fd5b81516001600160a01b038116811461011557600080fd5b9392505050565b610d8f8061012b6000396000f3fe6080604052600436106100fd5760003560e01c806375860d8411610095578063b06b0b1d11610064578063b06b0b1d14610316578063e33b7de31461034c578063f14faf6f14610362578063f2fde38b14610375578063fb5900911461039557600080fd5b806375860d841461025f5780638da5cb5b1461027f578063a6d5f40e146102b1578063a8d51ebe146102de57600080fd5b80634d68282f116100d15780634d68282f146101c55780635ffb7be0146101e75780636e27b8aa14610207578063715018a61461024a57600080fd5b8062b37044146101025780631a27f9a91461012b57806324454d5314610158578063449779ba14610198575b600080fd5b34801561010e57600080fd5b5061011860075481565b6040519081526020015b60405180910390f35b34801561013757600080fd5b50610118610146366004610c59565b60056020526000908152604090205481565b34801561016457600080fd5b50610188610173366004610c59565b60066020526000908152604090205460ff1681565b6040519015158152602001610122565b3480156101a457600080fd5b506101186101b3366004610c59565b60016020526000908152604090205481565b3480156101d157600080fd5b506101e56101e0366004610c59565b6103c2565b005b3480156101f357600080fd5b50610118610202366004610c72565b610751565b34801561021357600080fd5b50610118610222366004610ca9565b60009182526002602090815260408084206001600160a01b0393909316845291905290205490565b34801561025657600080fd5b506101e56108eb565b34801561026b57600080fd5b5061011861027a366004610cd9565b6108ff565b34801561028b57600080fd5b506000546001600160a01b03165b6040516001600160a01b039091168152602001610122565b3480156102bd57600080fd5b506101186102cc366004610c59565b60046020526000908152604090205481565b3480156102ea57600080fd5b506101186102f9366004610ca9565b600260209081526000928352604080842090915290825290205481565b34801561032257600080fd5b50610299610331366004610c59565b6003602052600090815260409020546001600160a01b031681565b34801561035857600080fd5b5061011860085481565b6101e5610370366004610c59565b6109d4565b34801561038157600080fd5b506101e5610390366004610cd9565b610b55565b3480156103a157600080fd5b506101186103b0366004610c59565b60009081526001602052604090205490565b6103ca610b90565b6103d2610bbd565b6000811161041d5760405162461bcd60e51b8152602060048201526013602482015272125b9d985b1a59081b5a5b195cdd1bdb995259606a1b60448201526064015b60405180910390fd5b600081815260046020526040902054806104795760405162461bcd60e51b815260206004820152601860248201527f4d696c6573746f6e65206e6f74207265676973746572656400000000000000006044820152606401610414565b60008281526006602052604090205460ff16156104d85760405162461bcd60e51b815260206004820152601a60248201527f4d696c6573746f6e6520616c72656164792072656c65617365640000000000006044820152606401610414565b6000818152600360205260409020546001600160a01b03168061053d5760405162461bcd60e51b815260206004820152601960248201527f4e474f2077616c6c6574206e6f7420636f6e66696775726564000000000000006044820152606401610414565b600083815260056020526040902054806105995760405162461bcd60e51b815260206004820152601f60248201527f4d696c6573746f6e6520616d6f756e74206e6f7420636f6e66696775726564006044820152606401610414565b6000838152600160205260409020548111156106025760405162461bcd60e51b815260206004820152602260248201527f496e73756666696369656e742063616d706169676e20657363726f772066756e604482015261647360f01b6064820152608401610414565b60008381526001602052604081208054839290610620908490610d13565b90915550506000848152600660205260408120805460ff1916600117905560088054839290610650908490610d26565b90915550506040516000906001600160a01b0384169083908381818185875af1925050503d80600081146106a0576040519150601f19603f3d011682016040523d82523d6000602084013e6106a5565b606091505b50509050806106ec5760405162461bcd60e51b8152602060048201526013602482015272119d5b99081c995b19585cd94819985a5b1959606a1b6044820152606401610414565b604080518381524260208201526001600160a01b03851691869188917fc96bdfee3bb005d825a8373fa5aa2ccbf1c170276c7e95ba59858f12cb8aa311910160405180910390a45050505061074e6001600080516020610d3a83398151915255565b50565b600061075b610b90565b600083116107a05760405162461bcd60e51b8152602060048201526012602482015271125b9d985b1a590818d85b5c185a59db925960721b6044820152606401610414565b600082116107f05760405162461bcd60e51b815260206004820152601860248201527f496e76616c6964206d696c6573746f6e6520616d6f756e7400000000000000006044820152606401610414565b6000838152600360205260409020546001600160a01b031661085f5760405162461bcd60e51b815260206004820152602260248201527f43616d706169676e204e474f2077616c6c6574206e6f74207265676973746572604482015261195960f21b6064820152608401610414565b600a80549060019060006108738385610d26565b90915550506000818152600460209081526040808320879055600582528083208690556006825291829020805460ff1916905581518581524291810191909152859183917f71f2f36e0c653584b690802bc5ed1da60f119944467e5530a887a93aeee8df89910160405180910390a390505b92915050565b6108f3610b90565b6108fd6000610bd9565b565b6000610909610b90565b6001600160a01b0382166109555760405162461bcd60e51b8152602060048201526013602482015272496e76616c6964204e474f206164647265737360681b6044820152606401610414565b600980549060019060006109698385610d26565b909155505060008181526003602090815260409182902080546001600160a01b0319166001600160a01b038716908117909155915142815283917f80fca8d32ce0621d9b18d52492c6ce9d6b8d1e6a3310aef4c616f486e958f0ea910160405180910390a392915050565b6109dc610bbd565b60008111610a215760405162461bcd60e51b8152602060048201526012602482015271125b9d985b1a590818d85b5c185a59db925960721b6044820152606401610414565b60003411610a835760405162461bcd60e51b815260206004820152602960248201527f446f6e6174696f6e20616d6f756e74206d7573742062652067726561746572206044820152687468616e207a65726f60b81b6064820152608401610414565b60008181526001602052604081208054349290610aa1908490610d26565b9091555050600081815260026020908152604080832033845290915281208054349290610acf908490610d26565b925050819055503460076000828254610ae89190610d26565b90915550506000818152600160209081526040918290205482513481529182015242818301529051339183917f0cf8c4854123959c570d98dc2c9bc5044a97e1a2e26f11987e922dc3483174449181900360600190a361074e6001600080516020610d3a83398151915255565b610b5d610b90565b6001600160a01b038116610b8757604051631e4fbdf760e01b815260006004820152602401610414565b61074e81610bd9565b6000546001600160a01b031633146108fd5760405163118cdaa760e01b8152336004820152602401610414565b610bc5610c29565b6002600080516020610d3a83398151915255565b600080546001600160a01b038381166001600160a01b0319831681178455604051919092169283917f8be0079c531659141344cd1fd0a4f28419497f9722a3daafe3b4186f6b6457e09190a35050565b600080516020610d3a833981519152546002036108fd57604051633ee5aeb560e01b815260040160405180910390fd5b600060208284031215610c6b57600080fd5b5035919050565b60008060408385031215610c8557600080fd5b50508035926020909101359150565b6001600160a01b038116811461074e57600080fd5b60008060408385031215610cbc57600080fd5b823591506020830135610cce81610c94565b809150509250929050565b600060208284031215610ceb57600080fd5b8135610cf681610c94565b9392505050565b634e487b7160e01b600052601160045260246000fd5b818103818111156108e5576108e5610cfd565b808201808211156108e5576108e5610cfd56fe9b779b17422d0df92223018b32b4d1fa46e071723d6817e2486d003becc55f00a2646970667358221220a1c2509c0db6a84c9a8967359924297c08f83fb29b601b5db6ee347abc639b6f64736f6c63430008180033",
  "linkReferences": {},
  "deployedLinkReferences": {}
}