{
  "_format": "hh-sol-artifact-1",
  "contractName": "Donation",
  "sourceName": "contracts/Donation.sol",
  "abi": [
    {
      "inputs": [
        {
          "internalType": "address",
          "name": "initialOwner",
          "type": "address"
        }
      ],
      "stateMutability": "nonpayable",
      "type": "constructor"
    },
    {
      "inputs": [
        {
          "internalType": "address",
          "name": "owner",
          "type": "address"
        }
      ],
      "name": "OwnableInvalidOwner",
      "type": "error"
    },
    {
      "inputs": [
        {
          "internalType": "address",
          "name": "account",
          "type": "address"
        }
      ],
      "name": "OwnableUnauthorizedAccount",
      "type": "error"
    },
    {
      "inputs": [],
      "name": "ReentrancyGuardReentrantCall",
      "type": "error"
    },
    {
      "anonymous": false,
      "inputs": [
        {
          "indexed": true,
          "internalType": "uint256",
          "name": "campaignId",
          "type": "uint256"
        },
        {
          "indexed": true,
          "internalType": "address",
          "name": "ngo",
          "type": "address"
        },
        {
          "indexed": false,
          "internalType": "uint256",
          "name": "timestamp",
          "type": "uint256"
        }
      ],
      "name": "CampaignRegistered",
      "type": "event"
    },
    {
      "anonymous": false,
      "inputs": [
        {
          "indexed": true,
          "internalType": "uint256",
          "name": "campaignId",
          "type": "uint256"
        },
        {
          "indexed": true,
          "internalType": "address",
          "name": "donor",
          "type": "address"
        },
        {
          "indexed": false,
          "internalType": "uint256",
          "name": "amount",
          "type": "uint256"
        },
        {
          "indexed": false,
          "internalType": "uint256",
          "name": "campaignTotal",
          "type": "uint256"
        },
        {
          "indexed": false,
          "internalType": "uint256",
          "name": "timestamp",
          "type": "uint256"
        }
      ],
      "name": "DonationReceived",
      "type": "event"
    },
    {
      "anonymous": false,
      "inputs": [
        {
          "indexed": true,
          "internalType": "uint256",
          "name": "milestoneId",
          "type": "uint256"
        },
        {
          "indexed": true,
          "internalType": "uint256",
          "name": "campaignId",
          "type": "uint256"
        },
        {
          "indexed": true,
          "internalType": "address",
          "name": "ngo",
          "type": "address"
        },
        {
          "indexed": false,
          "internalType": "uint256",
          "name": "amount",
          "type": "uint256"
        },
        {
          "indexed": false,
          "internalType": "uint256",
          "name": "timestamp",
          "type": "uint256"
        }
      ],
      "name": "FundsReleased",
      "type": "event"
    },
    {
      "anonymous": false,
      "inputs": [
        {
          "indexed": true,
          "internalType": "uint256",
          "name": "milestoneId",
          "type": "uint256"
        },
        {
          "indexed": true,
          "internalType": "uint256",
          "name": "campaignId",
          "type": "uint256"
        },
        {
          "indexed": false,
          "internalType": "uint256",
          "name": "amount",
          "type": "uint256"
        },
        {
          "indexed": false,
          "internalType": "uint256",
          "name": "timestamp",
          "type": "uint256"
        }
      ],
      "name": "MilestoneRegistered",
      "type": "event"
    },
    {
      "anonymous": false,
      "inputs": [
        {
          "indexed": true,
          "internalType": "address",
          "name": "previousOwner",
          "type": "address"
        },
        {
          "indexed": true,
          "internalType": "address",
          "name": "newOwner",
          "type": "address"
        }
      ],
      "name": "OwnershipTransferred",
      "type": "event"
    },
    {
      "inputs": [
        {
          "internalType": "uint256",
          "name": "",
          "type": "uint256"
        }
      ],
      "name": "campaignFunds",
      "outputs": [
        {
          "internalType": "uint256",
          "name": "",
          "type": "uint256"
        }
      ],
      "stateMutability": "view",
      "type": "function"
    },
    {
      "inputs": [
        {
          "internalType": "uint256",
          "name": "",
          "type": "uint256"
        }
      ],
      "name": "campaignNgoWallet",
      "outputs": [
        {
          "internalType": "address payable",
          "name": "",
          "type": "address"
        }
      ],
      "stateMutability": "view",
      "type": "function"
    },
    {
      "inputs": [
        {
          "internalType": "uint256",
          "name": "campaignId",
          "type": "uint256"
        }
      ],
      "name": "donate",
      "outputs": [],
      "stateMutability": "payable",
      "type": "function"
    },
    {
      "inputs": [
        {
          "internalType": "uint256",
          "name": "",
          "type": "uint256"
        },
        {
          "internalType": "address",
          "name": "",
          "type": "address"
        }
      ],
      "name": "donorCampaignTotals",
      "outputs": [
        {
          "internalType": "uint256",
          "name": "",
          "type": "uint256"
        }
      ],
      "stateMutability": "view",
      "type": "function"
    },
    {
      "inputs": [
        {
          "internalType": "uint256",
          "name": "campaignId",
          "type": "uint256"
        }
      ],
      "name": "getCampaignFunds",
      "outputs": [
        {
          "internalType": "uint256",
          "name": "",
          "type": "uint256"
        }
      ],
      "stateMutability": "view",
      "type": "function"
    },
    {
      "inputs": [
        {
          "internalType": "uint256",
          "name": "campaignId",
          "type": "uint256"
        },
        {
          "internalType": "address",
          "name": "donor",
          "type": "address"
        }
      ],
      "name": "getDonorCampaignTotal",
      "outputs": [
        {
          "internalType": "uint256",
          "name": "",
          "type": "uint256"
        }
      ],
      "stateMutability": "view",
      "type": "function"
    },
    {
      "inputs": [
        {
          "internalType": "uint256",
          "name": "",
          "type": "uint256"
        }
      ],
      "name": "milestoneReleaseAmount",
      "outputs": [
        {
          "internalType": "uint256",
          "name": "",
          "type": "uint256"
        }
      ],
      "stateMutability": "view",
      "type": "function"
    },
    {
      "inputs": [
        {
          "internalType": "uint256",
          "name": "",
          "type": "uint256"
        }
      ],
      "name": "milestoneReleased",
      "outputs": [
        {
          "internalType": "bool",
          "name": "",
          "type": "bool"
        }
      ],
      "stateMutability": "view",
      "type": "function"
    },
    {
      "inputs": [
        {
          "internalType": "uint256",
          "name": "",
          "type": "uint256"
        }
      ],
      "name": "milestoneToCampaign",
      "outputs": [
        {
          "internalType": "uint256",
          "name": "",
          "type": "uint256"
        }
      ],
      "stateMutability": "view",
      "type": "function"
    },
    {
      "inputs": [],
      "name": "owner",
      "outputs": [
        {
          "internalType": "address",
          "name": "",
          "type": "address"
        }
      ],
      "stateMutability": "view",
      "type": "function"
    },
    {
      "inputs": [
        {
          "internalType": "uint256",
          "name": "campaignId",
          "type": "uint256"
        },
        {
          "internalType": "address payable",
          "name": "ngo",
          "type": "address"
        }
      ],
      "name": "registerCampaign",
      "outputs": [],
      "stateMutability": "nonpayable",
      "type": "function"
    },
    {
      "inputs": [
        {
          "internalType": "uint256",
          "name": "milestoneId",
          "type": "uint256"
        },
        {
          "internalType": "uint256",
          "name": "campaignId",
          "type": "uint256"
        },
        {
          "internalType": "uint256",
          "name": "amountWei",
          "type": "uint256"
        }
      ],
      "name": "registerMilestone",
      "outputs": [],
      "stateMutability": "nonpayable",
      "type": "function"
    },
    {
      "inputs": [
        {
          "internalType": "uint256",
          "name": "milestoneId",
          "type": "uint256"
        }
      ],
      "name": "releaseFunds",
      "outputs": [],
      "stateMutability": "nonpayable",
      "type": "function"
    },
    {
      "inputs": [],
      "name": "renounceOwnership",
      "outputs": [],
      "stateMutability": "nonpayable",
      "type": "function"
    },
    {
      "inputs": [],
      "name": "totalDonated",
      "outputs": [
        {
          "internalType": "uint256",
          "name": "",
          "type": "uint256"
        }
      ],
      "stateMutability": "view",
      "type": "function"
    },
    {
      "inputs": [],
      "name": "totalReleased",
      "outputs": [
        {
          "internalType": "uint256",
          "name": "",
          "type": "uint256"
        }
      ],
      "stateMutability": "view",
      "type": "function"
    },
    {
      "inputs": [
        {
          "internalType": "address",
          "name": "newOwner",
          "type": "address"
        }
      ],
      "name": "transferOwnership",
      "outputs": [],
      "stateMutability": "nonpayable",
      "type": "function"
    }
  ],
  "bytecode": "0x608060405234801561001057600080fd5b50604051610ecd380380610ecd83398101604081905261002f916100e2565b806001600160a01b03811661005e57604051631e4fbdf760e01b81526000600482015260240160405180910390fd5b61006781610092565b5060017f9b779b17422d0df92223018b32b4d1fa46e071723d6817e2486d003becc55f005550610112565b600080546001600160a01b038381166001600160a01b0319831681178455604051919092169283917f8be0079c531659141344cd1fd0a4f28419497f9722a3daafe3b4186f6b6457e09190a35050565b6000602082840312156100f457600080fd5b81516001600160a01b038116811461010b57600080fd5b9392505050565b610dac806101216000396000f3fe6080604052600436106100fd5760003560e01c80638da5cb5b11610095578063b851af4411610064578063b851af4414610309578063e33b7de314610329578063f14faf6f1461033f578063f2fde38b14610352578063fb5900911461037257600080fd5b80638da5cb5b1461023c578063a6d5f40e1461026e578063a8d51ebe1461029b578063b06b0b1d146102d357600080fd5b80634d68282f116100d15780634d68282f146101c55780635693077a146101e75780636e27b8aa14610207578063715018a61461022757600080fd5b8062b37044146101025780631a27f9a91461012b57806324454d5314610158578063449779ba14610198575b600080fd5b34801561010e57600080fd5b5061011860075481565b6040519081526020015b60405180910390f35b34801561013757600080fd5b50610118610146366004610c40565b60056020526000908152604090205481565b34801561016457600080fd5b50610188610173366004610c40565b60066020526000908152604090205460ff1681565b6040519015158152602001610122565b3480156101a457600080fd5b506101186101b3366004610c40565b60016020526000908152604090205481565b3480156101d157600080fd5b506101e56101e0366004610c40565b61039f565b005b3480156101f357600080fd5b506101e5610202366004610c6e565b61072e565b34801561021357600080fd5b50610118610222366004610c6e565b610806565b34801561023357600080fd5b506101e5610830565b34801561024857600080fd5b506000546001600160a01b03165b6040516001600160a01b039091168152602001610122565b34801561027a57600080fd5b50610118610289366004610c40565b60046020526000908152604090205481565b3480156102a757600080fd5b506101186102b6366004610c6e565b600260209081526000928352604080842090915290825290205481565b3480156102df57600080fd5b506102566102ee366004610c40565b6003602052600090815260409020546001600160a01b031681565b34801561031557600080fd5b506101e5610324366004610c9e565b610844565b34801561033557600080fd5b5061011860085481565b6101e561034d366004610c40565b6109e0565b34801561035e57600080fd5b506101e561036d366004610cca565b610b3c565b34801561037e57600080fd5b5061011861038d366004610c40565b60009081526001602052604090205490565b6103a7610b77565b6103af610ba4565b600081116103fa5760405162461bcd60e51b8152602060048201526013602482015272125b9d985b1a59081b5a5b195cdd1bdb995259606a1b60448201526064015b60405180910390fd5b600081815260046020526040902054806104565760405162461bcd60e51b815260206004820152601860248201527f4d696c6573746f6e65206e6f742072656769737465726564000000000000000060448201526064016103f1565b60008281526006602052604090205460ff16156104b55760405162461bcd60e51b815260206004820152601a60248201527f4d696c6573746f6e6520616c72656164792072656c656173656400000000000060448201526064016103f1565b6000818152600360205260409020546001600160a01b03168061051a5760405162461bcd60e51b815260206004820152601960248201527f4e474f2077616c6c6574206e6f7420636f6e666967757265640000000000000060448201526064016103f1565b600083815260056020526040902054806105765760405162461bcd60e51b815260206004820152601f60248201527f4d696c6573746f6e6520616d6f756e74206e6f7420636f6e666967757265640060448201526064016103f1565b6000838152600160205260409020548111156105df5760405162461bcd60e51b815260206004820152602260248201527f496e73756666696369656e742063616d706169676e20657363726f772066756e604482015261647360f01b60648201526084016103f1565b600083815260016020526040812080548392906105fd908490610d04565b90915550506000848152600660205260408120805460ff191660011790556008805483929061062d908490610d17565b90915550506040516000906001600160a01b0384169083908381818185875af1925050503d806000811461067d576040519150601f19603f3d011682016040523d82523d6000602084013e610682565b606091505b50509050806106c95760405162461bcd60e51b8152602060048201526013602482015272119d5b99081c995b19585cd94819985a5b1959606a1b60448201526064016103f1565b604080518381524260208201526001600160a01b03851691869188917fc96bdfee3bb005d825a8373fa5aa2ccbf1c170276c7e95ba59858f12cb8aa311910160405180910390a45050505061072b6001600080516020610d5783398151915255565b50565b610736610b77565b600082116107565760405162461bcd60e51b81526004016103f190610d2a565b6001600160a01b0381166107a25760405162461bcd60e51b8152602060048201526013602482015272496e76616c6964204e474f206164647265737360681b60448201526064016103f1565b60008281526003602090815260409182902080546001600160a01b0319166001600160a01b038516908117909155915142815284917f80fca8d32ce0621d9b18d52492c6ce9d6b8d1e6a3310aef4c616f486e958f0ea910160405180910390a35050565b60008281526002602090815260408083206001600160a01b03851684529091529020545b92915050565b610838610b77565b6108426000610bc0565b565b61084c610b77565b600083116108925760405162461bcd60e51b8152602060048201526013602482015272125b9d985b1a59081b5a5b195cdd1bdb995259606a1b60448201526064016103f1565b600082116108b25760405162461bcd60e51b81526004016103f190610d2a565b600081116109025760405162461bcd60e51b815260206004820152601860248201527f496e76616c6964206d696c6573746f6e6520616d6f756e74000000000000000060448201526064016103f1565b6000828152600360205260409020546001600160a01b03166109715760405162461bcd60e51b815260206004820152602260248201527f43616d706169676e204e474f2077616c6c6574206e6f74207265676973746572604482015261195960f21b60648201526084016103f1565b6000838152600460209081526040808320859055600582528083208490556006825291829020805460ff1916905581518381524291810191909152839185917f71f2f36e0c653584b690802bc5ed1da60f119944467e5530a887a93aeee8df89910160405180910390a3505050565b6109e8610ba4565b60008111610a085760405162461bcd60e51b81526004016103f190610d2a565b60003411610a6a5760405162461bcd60e51b815260206004820152602960248201527f446f6e6174696f6e20616d6f756e74206d7573742062652067726561746572206044820152687468616e207a65726f60b81b60648201526084016103f1565b60008181526001602052604081208054349290610a88908490610d17565b9091555050600081815260026020908152604080832033845290915281208054349290610ab6908490610d17565b925050819055503460076000828254610acf9190610d17565b90915550506000818152600160209081526040918290205482513481529182015242818301529051339183917f0cf8c4854123959c570d98dc2c9bc5044a97e1a2e26f11987e922dc3483174449181900360600190a361072b6001600080516020610d5783398151915255565b610b44610b77565b6001600160a01b038116610b6e57604051631e4fbdf760e01b8152600060048201526024016103f1565b61072b81610bc0565b6000546001600160a01b031633146108425760405163118cdaa760e01b81523360048201526024016103f1565b610bac610c10565b6002600080516020610d5783398151915255565b600080546001600160a01b038381166001600160a01b0319831681178455604051919092169283917f8be0079c531659141344cd1fd0a4f28419497f9722a3daafe3b4186f6b6457e09190a35050565b600080516020610d578339815191525460020361084257604051633ee5aeb560e01b815260040160405180910390fd5b600060208284031215610c5257600080fd5b5035919050565b6001600160a01b038116811461072b57600080fd5b60008060408385031215610c8157600080fd5b823591506020830135610c9381610c59565b809150509250929050565b600080600060608486031215610cb357600080fd5b505081359360208301359350604090920135919050565b600060208284031215610cdc57600080fd5b8135610ce781610c59565b9392505050565b634e487b7160e01b600052601160045260246000fd5b8181038181111561082a5761082a610cee565b8082018082111561082a5761082a610cee565b602080825260129082015271125b9d985b1a590818d85b5c185a59db925960721b60408201526060019056fe9b779b17422d0df92223018b32b4d1fa46e071723d6817e2486d003becc55f00a26469706673582212204e0f4f2a0174634d3e09d8b2c87b2ff2ca095859ee4f9dd257e6c5315042aeee64736f6c63430008180033",
  "linkReferences": {},
  "deployedLinkReferences": {}
}